{
  "contractName": "TDCNFT",
  "abi": [
    {
      "inputs": [
        {
          "internalType": "string",
          "name": "_initBaseURI",
          "type": "string"
        }
      ],
      "stateMutability": "nonpayable",
      "type": "constructor"
    },
    {
      "anonymous": false,
      "inputs": [
        {
          "indexed": true,
          "internalType": "address",
          "name": "owner",
          "type": "address"
        },
        {
          "indexed": true,
          "internalType": "address",
          "name": "approved",
          "type": "address"
        },
        {
          "indexed": true,
          "internalType": "uint256",
          "name": "tokenId",
          "type": "uint256"
        }
      ],
      "name": "Approval",
      "type": "event"
    },
    {
      "anonymous": false,
      "inputs": [
        {
          "indexed": true,
          "internalType": "address",
          "name": "owner",
          "type": "address"
        },
        {
          "indexed": true,
          "internalType": "address",
          "name": "operator",
          "type": "address"
        },
        {
          "indexed": false,
          "internalType": "bool",
          "name": "approved",
          "type": "bool"
        }
      ],
      "name": "ApprovalForAll",
      "type": "event"
    },
    {
      "anonymous": false,
      "inputs": [
        {
          "indexed": true,
          "internalType": "address",
          "name": "previousOwner",
          "type": "address"
        },
        {
          "indexed": true,
          "internalType": "address",
          "name": "newOwner",
          "type": "address"
        }
      ],
      "name": "OwnershipTransferred",
      "type": "event"
    },
    {
      "anonymous": false,
      "inputs": [
        {
          "indexed": true,
          "internalType": "address",
          "name": "from",
          "type": "address"
        },
        {
          "indexed": true,
          "internalType": "address",
          "name": "to",
          "type": "address"
        },
        {
          "indexed": true,
          "internalType": "uint256",
          "name": "tokenId",
          "type": "uint256"
        }
      ],
      "name": "Transfer",
      "type": "event"
    },
    {
      "inputs": [
        {
          "internalType": "address",
          "name": "to",
          "type": "address"
        },
        {
          "internalType": "uint256",
          "name": "tokenId",
          "type": "uint256"
        }
      ],
      "name": "approve",
      "outputs": [],
      "stateMutability": "nonpayable",
      "type": "function"
    },
    {
      "inputs": [
        {
          "internalType": "address",
          "name": "owner",
          "type": "address"
        }
      ],
      "name": "balanceOf",
      "outputs": [
        {
          "internalType": "uint256",
          "name": "",
          "type": "uint256"
        }
      ],
      "stateMutability": "view",
      "type": "function"
    },
    {
      "inputs": [],
      "name": "baseExtension",
      "outputs": [
        {
          "internalType": "string",
          "name": "",
          "type": "string"
        }
      ],
      "stateMutability": "view",
      "type": "function"
    },
    {
      "inputs": [
        {
          "internalType": "uint256",
          "name": "tokenId",
          "type": "uint256"
        }
      ],
      "name": "getApproved",
      "outputs": [
        {
          "internalType": "address",
          "name": "",
          "type": "address"
        }
      ],
      "stateMutability": "view",
      "type": "function"
    },
    {
      "inputs": [
        {
          "internalType": "address",
          "name": "owner",
          "type": "address"
        },
        {
          "internalType": "address",
          "name": "operator",
          "type": "address"
        }
      ],
      "name": "isApprovedForAll",
      "outputs": [
        {
          "internalType": "bool",
          "name": "",
          "type": "bool"
        }
      ],
      "stateMutability": "view",
      "type": "function"
    },
    {
      "inputs": [],
      "name": "maxMintAmount",
      "outputs": [
        {
          "internalType": "uint256",
          "name": "",
          "type": "uint256"
        }
      ],
      "stateMutability": "view",
      "type": "function"
    },
    {
      "inputs": [],
      "name": "maxSupply",
      "outputs": [
        {
          "internalType": "uint256",
          "name": "",
          "type": "uint256"
        }
      ],
      "stateMutability": "view",
      "type": "function"
    },
    {
      "inputs": [],
      "name": "name",
      "outputs": [
        {
          "internalType": "string",
          "name": "",
          "type": "string"
        }
      ],
      "stateMutability": "view",
      "type": "function"
    },
    {
      "inputs": [],
      "name": "owner",
      "outputs": [
        {
          "internalType": "address",
          "name": "",
          "type": "address"
        }
      ],
      "stateMutability": "view",
      "type": "function"
    },
    {
      "inputs": [
        {
          "internalType": "uint256",
          "name": "tokenId",
          "type": "uint256"
        }
      ],
      "name": "ownerOf",
      "outputs": [
        {
          "internalType": "address",
          "name": "",
          "type": "address"
        }
      ],
      "stateMutability": "view",
      "type": "function"
    },
    {
      "inputs": [],
      "name": "paused",
      "outputs": [
        {
          "internalType": "bool",
          "name": "",
          "type": "bool"
        }
      ],
      "stateMutability": "view",
      "type": "function"
    },
    {
      "inputs": [],
      "name": "renounceOwnership",
      "outputs": [],
      "stateMutability": "nonpayable",
      "type": "function"
    },
    {
      "inputs": [
        {
          "internalType": "address",
          "name": "from",
          "type": "address"
        },
        {
          "internalType": "address",
          "name": "to",
          "type": "address"
        },
        {
          "internalType": "uint256",
          "name": "tokenId",
          "type": "uint256"
        }
      ],
      "name": "safeTransferFrom",
      "outputs": [],
      "stateMutability": "nonpayable",
      "type": "function"
    },
    {
      "inputs": [
        {
          "internalType": "address",
          "name": "from",
          "type": "address"
        },
        {
          "internalType": "address",
          "name": "to",
          "type": "address"
        },
        {
          "internalType": "uint256",
          "name": "tokenId",
          "type": "uint256"
        },
        {
          "internalType": "bytes",
          "name": "data",
          "type": "bytes"
        }
      ],
      "name": "safeTransferFrom",
      "outputs": [],
      "stateMutability": "nonpayable",
      "type": "function"
    },
    {
      "inputs": [
        {
          "internalType": "address",
          "name": "operator",
          "type": "address"
        },
        {
          "internalType": "bool",
          "name": "approved",
          "type": "bool"
        }
      ],
      "name": "setApprovalForAll",
      "outputs": [],
      "stateMutability": "nonpayable",
      "type": "function"
    },
    {
      "inputs": [
        {
          "internalType": "bytes4",
          "name": "interfaceId",
          "type": "bytes4"
        }
      ],
      "name": "supportsInterface",
      "outputs": [
        {
          "internalType": "bool",
          "name": "",
          "type": "bool"
        }
      ],
      "stateMutability": "view",
      "type": "function"
    },
    {
      "inputs": [],
      "name": "symbol",
      "outputs": [
        {
          "internalType": "string",
          "name": "",
          "type": "string"
        }
      ],
      "stateMutability": "view",
      "type": "function"
    },
    {
      "inputs": [
        {
          "internalType": "uint256",
          "name": "index",
          "type": "uint256"
        }
      ],
      "name": "tokenByIndex",
      "outputs": [
        {
          "internalType": "uint256",
          "name": "",
          "type": "uint256"
        }
      ],
      "stateMutability": "view",
      "type": "function"
    },
    {
      "inputs": [
        {
          "internalType": "address",
          "name": "owner",
          "type": "address"
        },
        {
          "internalType": "uint256",
          "name": "index",
          "type": "uint256"
        }
      ],
      "name": "tokenOfOwnerByIndex",
      "outputs": [
        {
          "internalType": "uint256",
          "name": "",
          "type": "uint256"
        }
      ],
      "stateMutability": "view",
      "type": "function"
    },
    {
      "inputs": [],
      "name": "totalSupply",
      "outputs": [
        {
          "internalType": "uint256",
          "name": "",
          "type": "uint256"
        }
      ],
      "stateMutability": "view",
      "type": "function"
    },
    {
      "inputs": [
        {
          "internalType": "address",
          "name": "from",
          "type": "address"
        },
        {
          "internalType": "address",
          "name": "to",
          "type": "address"
        },
        {
          "internalType": "uint256",
          "name": "tokenId",
          "type": "uint256"
        }
      ],
      "name": "transferFrom",
      "outputs": [],
      "stateMutability": "nonpayable",
      "type": "function"
    },
    {
      "inputs": [
        {
          "internalType": "address",
          "name": "newOwner",
          "type": "address"
        }
      ],
      "name": "transferOwnership",
      "outputs": [],
      "stateMutability": "nonpayable",
      "type": "function"
    },
    {
      "inputs": [],
      "name": "whitelisted",
      "outputs": [
        {
          "internalType": "bool",
          "name": "",
          "type": "bool"
        }
      ],
      "stateMutability": "view",
      "type": "function"
    },
    {
      "inputs": [
        {
          "internalType": "uint256",
          "name": "",
          "type": "uint256"
        }
      ],
      "name": "whitelistedUsers",
      "outputs": [
        {
          "internalType": "address",
          "name": "",
          "type": "address"
        }
      ],
      "stateMutability": "view",
      "type": "function"
    },
    {
      "inputs": [
        {
          "internalType": "uint256",
          "name": "_mintAmount",
          "type": "uint256"
        }
      ],
      "name": "mint",
      "outputs": [],
      "stateMutability": "payable",
      "type": "function"
    },
    {
      "inputs": [
        {
          "internalType": "address",
          "name": "_user",
          "type": "address"
        }
      ],
      "name": "isWhitelisted",
      "outputs": [
        {
          "internalType": "bool",
          "name": "",
          "type": "bool"
        }
      ],
      "stateMutability": "nonpayable",
      "type": "function"
    },
    {
      "inputs": [
        {
          "internalType": "address",
          "name": "_owner",
          "type": "address"
        }
      ],
      "name": "walletOfOwner",
      "outputs": [
        {
          "internalType": "uint256[]",
          "name": "",
          "type": "uint256[]"
        }
      ],
      "stateMutability": "view",
      "type": "function"
    },
    {
      "inputs": [
        {
          "internalType": "uint256",
          "name": "tokenId",
          "type": "uint256"
        }
      ],
      "name": "tokenURI",
      "outputs": [
        {
          "internalType": "string",
          "name": "",
          "type": "string"
        }
      ],
      "stateMutability": "view",
      "type": "function"
    },
    {
      "inputs": [
        {
          "internalType": "address[]",
          "name": "_users",
          "type": "address[]"
        }
      ],
      "name": "createWhitelist",
      "outputs": [],
      "stateMutability": "nonpayable",
      "type": "function"
    },
    {
      "inputs": [
        {
          "internalType": "bool",
          "name": "_state",
          "type": "bool"
        }
      ],
      "name": "setWhitelisted",
      "outputs": [],
      "stateMutability": "nonpayable",
      "type": "function"
    },
    {
      "inputs": [
        {
          "internalType": "uint256",
          "name": "_newmaxMintAmount",
          "type": "uint256"
        }
      ],
      "name": "setmaxMintAmount",
      "outputs": [],
      "stateMutability": "nonpayable",
      "type": "function"
    },
    {
      "inputs": [
        {
          "internalType": "string",
          "name": "_newBaseURI",
          "type": "string"
        }
      ],
      "name": "setBaseURI",
      "outputs": [],
      "stateMutability": "nonpayable",
      "type": "function"
    },
    {
      "inputs": [
        {
          "internalType": "string",
          "name": "_newBaseExtension",
          "type": "string"
        }
      ],
      "name": "setBaseExtension",
      "outputs": [],
      "stateMutability": "nonpayable",
      "type": "function"
    },
    {
      "inputs": [
        {
          "internalType": "bool",
          "name": "_state",
          "type": "bool"
        }
      ],
      "name": "pause",
      "outputs": [],
      "stateMutability": "nonpayable",
      "type": "function"
    }
  ],
  "bytecode": "0x60c06040526005608081905264173539b7b760d91b60a09081526200002891600c9190620001e5565b506014600d556003600e55600f805461ffff19166101001790553480156200004f57600080fd5b5060405162002656380380620026568339810160408190526200007291620002a1565b60408051808201825260118152702a3434b939ba3c902237b3b99021b63ab160791b60208083019182528351808501909452600384526254444360e81b908401528151919291620000c691600091620001e5565b508051620000dc906001906020840190620001e5565b505050620000f9620000f36200010b60201b60201c565b6200010f565b620001048162000161565b50620003ba565b3390565b600a80546001600160a01b038381166001600160a01b0319831681179093556040519116919082907f8be0079c531659141344cd1fd0a4f28419497f9722a3daafe3b4186f6b6457e090600090a35050565b6200016b62000184565b80516200018090600b906020840190620001e5565b5050565b600a546001600160a01b03163314620001e35760405162461bcd60e51b815260206004820181905260248201527f4f776e61626c653a2063616c6c6572206973206e6f7420746865206f776e6572604482015260640160405180910390fd5b565b828054620001f3906200037d565b90600052602060002090601f01602090048101928262000217576000855562000262565b82601f106200023257805160ff191683800117855562000262565b8280016001018555821562000262579182015b828111156200026257825182559160200191906001019062000245565b506200027092915062000274565b5090565b5b8082111562000270576000815560010162000275565b634e487b7160e01b600052604160045260246000fd5b60006020808385031215620002b557600080fd5b82516001600160401b0380821115620002cd57600080fd5b818501915085601f830112620002e257600080fd5b815181811115620002f757620002f76200028b565b604051601f8201601f19908116603f011681019083821181831017156200032257620003226200028b565b8160405282815288868487010111156200033b57600080fd5b600093505b828410156200035f578484018601518185018701529285019262000340565b82841115620003715760008684830101525b98975050505050505050565b600181811c908216806200039257607f821691505b60208210811415620003b457634e487b7160e01b600052602260045260246000fd5b50919050565b61228c80620003ca6000396000f3fe6080604052600436106101f95760003560e01c80636352211e1161010d578063a0712d68116100a0578063c87b56dd1161006f578063c87b56dd1461059a578063d5abeb01146105ba578063da3ef23f146105d0578063e985e9c5146105f0578063f2fde38b1461063957600080fd5b8063a0712d6814610532578063a22cb46514610545578063b88d4fde14610565578063c66828621461058557600080fd5b80637f00c7a6116100dc5780637f00c7a6146104bf57806385668275146104df5780638da5cb5b146104ff57806395d89b411461051d57600080fd5b80636352211e1461044a57806370a082311461046a578063715018a61461048a5780637b7892041461049f57600080fd5b80632f745c591161019057806342842e0e1161015f57806342842e0e146103a3578063438b6300146103c35780634f6ccce7146103f057806355f804b3146104105780635c975abb1461043057600080fd5b80632f745c59146103245780633af32abf146103445780633d9287fa146103645780633dd16f461461038357600080fd5b8063095ea7b3116101cc578063095ea7b3146102af57806318160ddd146102cf578063239c70ae146102ee57806323b872dd1461030457600080fd5b806301ffc9a7146101fe57806302329a291461023357806306fdde0314610255578063081812fc14610277575b600080fd5b34801561020a57600080fd5b5061021e610219366004611bc3565b610659565b60405190151581526020015b60405180910390f35b34801561023f57600080fd5b5061025361024e366004611bf5565b610684565b005b34801561026157600080fd5b5061026a61069f565b60405161022a9190611c68565b34801561028357600080fd5b50610297610292366004611c7b565b610731565b6040516001600160a01b03909116815260200161022a565b3480156102bb57600080fd5b506102536102ca366004611cab565b610758565b3480156102db57600080fd5b506008545b60405190815260200161022a565b3480156102fa57600080fd5b506102e0600e5481565b34801561031057600080fd5b5061025361031f366004611cd5565b610873565b34801561033057600080fd5b506102e061033f366004611cab565b6108a4565b34801561035057600080fd5b5061021e61035f366004611d11565b61093a565b34801561037057600080fd5b50600f5461021e90610100900460ff1681565b34801561038f57600080fd5b5061025361039e366004611d2c565b6109a4565b3480156103af57600080fd5b506102536103be366004611cd5565b6109c4565b3480156103cf57600080fd5b506103e36103de366004611d11565b6109df565b60405161022a9190611da1565b3480156103fc57600080fd5b506102e061040b366004611c7b565b610a81565b34801561041c57600080fd5b5061025361042b366004611e71565b610b14565b34801561043c57600080fd5b50600f5461021e9060ff1681565b34801561045657600080fd5b50610297610465366004611c7b565b610b33565b34801561047657600080fd5b506102e0610485366004611d11565b610b93565b34801561049657600080fd5b50610253610c19565b3480156104ab57600080fd5b506102536104ba366004611bf5565b610c2d565b3480156104cb57600080fd5b506102536104da366004611c7b565b610c4f565b3480156104eb57600080fd5b506102976104fa366004611c7b565b610c5c565b34801561050b57600080fd5b50600a546001600160a01b0316610297565b34801561052957600080fd5b5061026a610c86565b610253610540366004611c7b565b610c95565b34801561055157600080fd5b50610253610560366004611eba565b610d81565b34801561057157600080fd5b50610253610580366004611eed565b610d8c565b34801561059157600080fd5b5061026a610dc4565b3480156105a657600080fd5b5061026a6105b5366004611c7b565b610e52565b3480156105c657600080fd5b506102e0600d5481565b3480156105dc57600080fd5b506102536105eb366004611e71565b610f30565b3480156105fc57600080fd5b5061021e61060b366004611f69565b6001600160a01b03918216600090815260056020908152604080832093909416825291909152205460ff1690565b34801561064557600080fd5b50610253610654366004611d11565b610f4b565b60006001600160e01b0319821663780e9d6360e01b148061067e575061067e82610fc4565b92915050565b61068c611014565b600f805460ff1916911515919091179055565b6060600080546106ae90611f93565b80601f01602080910402602001604051908101604052809291908181526020018280546106da90611f93565b80156107275780601f106106fc57610100808354040283529160200191610727565b820191906000526020600020905b81548152906001019060200180831161070a57829003601f168201915b5050505050905090565b600061073c8261106e565b506000908152600460205260409020546001600160a01b031690565b600061076382610b33565b9050806001600160a01b0316836001600160a01b031614156107d65760405162461bcd60e51b815260206004820152602160248201527f4552433732313a20617070726f76616c20746f2063757272656e74206f776e656044820152603960f91b60648201526084015b60405180910390fd5b336001600160a01b03821614806107f257506107f2813361060b565b6108645760405162461bcd60e51b815260206004820152603e60248201527f4552433732313a20617070726f76652063616c6c6572206973206e6f7420746f60448201527f6b656e206f776e6572206e6f7220617070726f76656420666f7220616c6c000060648201526084016107cd565b61086e83836110cd565b505050565b61087d338261113b565b6108995760405162461bcd60e51b81526004016107cd90611fce565b61086e8383836111ba565b60006108af83610b93565b82106109115760405162461bcd60e51b815260206004820152602b60248201527f455243373231456e756d657261626c653a206f776e657220696e646578206f7560448201526a74206f6620626f756e647360a81b60648201526084016107cd565b506001600160a01b03919091166000908152600660209081526040808320938352929052205490565b6000805b60105481101561099b57826001600160a01b0316601082815481106109655761096561201c565b6000918252602090912001546001600160a01b031614156109895750600192915050565b8061099381612048565b91505061093e565b50600092915050565b6109ac611014565b6109b860106000611aa3565b61086e60108383611ac1565b61086e83838360405180602001604052806000815250610d8c565b606060006109ec83610b93565b905060008167ffffffffffffffff811115610a0957610a09611de5565b604051908082528060200260200182016040528015610a32578160200160208202803683370190505b50905060005b82811015610a7957610a4a85826108a4565b828281518110610a5c57610a5c61201c565b602090810291909101015280610a7181612048565b915050610a38565b509392505050565b6000610a8c60085490565b8210610aef5760405162461bcd60e51b815260206004820152602c60248201527f455243373231456e756d657261626c653a20676c6f62616c20696e646578206f60448201526b7574206f6620626f756e647360a01b60648201526084016107cd565b60088281548110610b0257610b0261201c565b90600052602060002001549050919050565b610b1c611014565b8051610b2f90600b906020840190611b24565b5050565b6000818152600260205260408120546001600160a01b03168061067e5760405162461bcd60e51b8152602060048201526018602482015277115490cdcc8c4e881a5b9d985b1a59081d1bdad95b88125160421b60448201526064016107cd565b60006001600160a01b038216610bfd5760405162461bcd60e51b815260206004820152602960248201527f4552433732313a2061646472657373207a65726f206973206e6f7420612076616044820152683634b21037bbb732b960b91b60648201526084016107cd565b506001600160a01b031660009081526003602052604090205490565b610c21611014565b610c2b6000611361565b565b610c35611014565b600f80549115156101000261ff0019909216919091179055565b610c57611014565b600e55565b60108181548110610c6c57600080fd5b6000918252602090912001546001600160a01b0316905081565b6060600180546106ae90611f93565b6000610ca060085490565b600f5490915060ff1615610cb357600080fd5b60008211610cc057600080fd5b600e54821115610ccf57600080fd5b600d54610cdc8383612063565b1115610ce757600080fd5b600f5460ff61010090910416151560011415610d5257610d063361093a565b610d525760405162461bcd60e51b815260206004820152601760248201527f55736572206973206e6f742077686974656c697374656400000000000000000060448201526064016107cd565b60015b82811161086e57610d6f33610d6a8385612063565b6113b3565b80610d7981612048565b915050610d55565b610b2f3383836113cd565b610d96338361113b565b610db25760405162461bcd60e51b81526004016107cd90611fce565b610dbe8484848461149c565b50505050565b600c8054610dd190611f93565b80601f0160208091040260200160405190810160405280929190818152602001828054610dfd90611f93565b8015610e4a5780601f10610e1f57610100808354040283529160200191610e4a565b820191906000526020600020905b815481529060010190602001808311610e2d57829003601f168201915b505050505081565b6000818152600260205260409020546060906001600160a01b0316610ed15760405162461bcd60e51b815260206004820152602f60248201527f4552433732314d657461646174613a2055524920717565727920666f72206e6f60448201526e3732bc34b9ba32b73a103a37b5b2b760891b60648201526084016107cd565b6000610edb6114cf565b90506000815111610efb5760405180602001604052806000815250610f29565b80610f05846114de565b600c604051602001610f199392919061207b565b6040516020818303038152906040525b9392505050565b610f38611014565b8051610b2f90600c906020840190611b24565b610f53611014565b6001600160a01b038116610fb85760405162461bcd60e51b815260206004820152602660248201527f4f776e61626c653a206e6577206f776e657220697320746865207a65726f206160448201526564647265737360d01b60648201526084016107cd565b610fc181611361565b50565b60006001600160e01b031982166380ac58cd60e01b1480610ff557506001600160e01b03198216635b5e139f60e01b145b8061067e57506301ffc9a760e01b6001600160e01b031983161461067e565b600a546001600160a01b03163314610c2b5760405162461bcd60e51b815260206004820181905260248201527f4f776e61626c653a2063616c6c6572206973206e6f7420746865206f776e657260448201526064016107cd565b6000818152600260205260409020546001600160a01b0316610fc15760405162461bcd60e51b8152602060048201526018602482015277115490cdcc8c4e881a5b9d985b1a59081d1bdad95b88125160421b60448201526064016107cd565b600081815260046020526040902080546001600160a01b0319166001600160a01b038416908117909155819061110282610b33565b6001600160a01b03167f8c5be1e5ebec7d5bd14f71427d1e84f3dd0314c0f7b2291e5b200ac8c7c3b92560405160405180910390a45050565b60008061114783610b33565b9050806001600160a01b0316846001600160a01b0316148061118e57506001600160a01b0380821660009081526005602090815260408083209388168352929052205460ff165b806111b25750836001600160a01b03166111a784610731565b6001600160a01b0316145b949350505050565b826001600160a01b03166111cd82610b33565b6001600160a01b0316146112315760405162461bcd60e51b815260206004820152602560248201527f4552433732313a207472616e736665722066726f6d20696e636f72726563742060448201526437bbb732b960d91b60648201526084016107cd565b6001600160a01b0382166112935760405162461bcd60e51b8152602060048201526024808201527f4552433732313a207472616e7366657220746f20746865207a65726f206164646044820152637265737360e01b60648201526084016107cd565b61129e8383836115dc565b6112a96000826110cd565b6001600160a01b03831660009081526003602052604081208054600192906112d290849061213f565b90915550506001600160a01b0382166000908152600360205260408120805460019290611300908490612063565b909155505060008181526002602052604080822080546001600160a01b0319166001600160a01b0386811691821790925591518493918716917fddf252ad1be2c89b69c2b068fc378daa952ba7f163c4a11628f55a4df523b3ef91a4505050565b600a80546001600160a01b038381166001600160a01b0319831681179093556040519116919082907f8be0079c531659141344cd1fd0a4f28419497f9722a3daafe3b4186f6b6457e090600090a35050565b610b2f828260405180602001604052806000815250611694565b816001600160a01b0316836001600160a01b0316141561142f5760405162461bcd60e51b815260206004820152601960248201527f4552433732313a20617070726f766520746f2063616c6c65720000000000000060448201526064016107cd565b6001600160a01b03838116600081815260056020908152604080832094871680845294825291829020805460ff191686151590811790915591519182527f17307eab39ab6107e8899845ad3d59bd9653f200f220920489ca2b5937696c31910160405180910390a3505050565b6114a78484846111ba565b6114b3848484846116c7565b610dbe5760405162461bcd60e51b81526004016107cd90612156565b6060600b80546106ae90611f93565b6060816115025750506040805180820190915260018152600360fc1b602082015290565b8160005b811561152c578061151681612048565b91506115259050600a836121be565b9150611506565b60008167ffffffffffffffff81111561154757611547611de5565b6040519080825280601f01601f191660200182016040528015611571576020820181803683370190505b5090505b84156111b25761158660018361213f565b9150611593600a866121d2565b61159e906030612063565b60f81b8183815181106115b3576115b361201c565b60200101906001600160f81b031916908160001a9053506115d5600a866121be565b9450611575565b6001600160a01b0383166116375761163281600880546000838152600960205260408120829055600182018355919091527ff3f7a9fe364faab93b216da50a3214154f22a0a2b415b23a84c8169e8b636ee30155565b61165a565b816001600160a01b0316836001600160a01b03161461165a5761165a83826117c5565b6001600160a01b0382166116715761086e81611862565b826001600160a01b0316826001600160a01b03161461086e5761086e8282611911565b61169e8383611955565b6116ab60008484846116c7565b61086e5760405162461bcd60e51b81526004016107cd90612156565b60006001600160a01b0384163b156117ba57604051630a85bd0160e11b81526001600160a01b0385169063150b7a029061170b9033908990889088906004016121e6565b6020604051808303816000875af1925050508015611746575060408051601f3d908101601f1916820190925261174391810190612223565b60015b6117a0573d808015611774576040519150601f19603f3d011682016040523d82523d6000602084013e611779565b606091505b5080516117985760405162461bcd60e51b81526004016107cd90612156565b805181602001fd5b6001600160e01b031916630a85bd0160e11b1490506111b2565b506001949350505050565b600060016117d284610b93565b6117dc919061213f565b60008381526007602052604090205490915080821461182f576001600160a01b03841660009081526006602090815260408083208584528252808320548484528184208190558352600790915290208190555b5060009182526007602090815260408084208490556001600160a01b039094168352600681528383209183525290812055565b6008546000906118749060019061213f565b6000838152600960205260408120546008805493945090928490811061189c5761189c61201c565b9060005260206000200154905080600883815481106118bd576118bd61201c565b60009182526020808320909101929092558281526009909152604080822084905585825281205560088054806118f5576118f5612240565b6001900381819060005260206000200160009055905550505050565b600061191c83610b93565b6001600160a01b039093166000908152600660209081526040808320868452825280832085905593825260079052919091209190915550565b6001600160a01b0382166119ab5760405162461bcd60e51b815260206004820181905260248201527f4552433732313a206d696e7420746f20746865207a65726f206164647265737360448201526064016107cd565b6000818152600260205260409020546001600160a01b031615611a105760405162461bcd60e51b815260206004820152601c60248201527f4552433732313a20746f6b656e20616c7265616479206d696e7465640000000060448201526064016107cd565b611a1c600083836115dc565b6001600160a01b0382166000908152600360205260408120805460019290611a45908490612063565b909155505060008181526002602052604080822080546001600160a01b0319166001600160a01b03861690811790915590518392907fddf252ad1be2c89b69c2b068fc378daa952ba7f163c4a11628f55a4df523b3ef908290a45050565b5080546000825590600052602060002090810190610fc19190611b98565b828054828255906000526020600020908101928215611b14579160200282015b82811115611b145781546001600160a01b0319166001600160a01b03843516178255602090920191600190910190611ae1565b50611b20929150611b98565b5090565b828054611b3090611f93565b90600052602060002090601f016020900481019282611b525760008555611b14565b82601f10611b6b57805160ff1916838001178555611b14565b82800160010185558215611b14579182015b82811115611b14578251825591602001919060010190611b7d565b5b80821115611b205760008155600101611b99565b6001600160e01b031981168114610fc157600080fd5b600060208284031215611bd557600080fd5b8135610f2981611bad565b80358015158114611bf057600080fd5b919050565b600060208284031215611c0757600080fd5b610f2982611be0565b60005b83811015611c2b578181015183820152602001611c13565b83811115610dbe5750506000910152565b60008151808452611c54816020860160208601611c10565b601f01601f19169290920160200192915050565b602081526000610f296020830184611c3c565b600060208284031215611c8d57600080fd5b5035919050565b80356001600160a01b0381168114611bf057600080fd5b60008060408385031215611cbe57600080fd5b611cc783611c94565b946020939093013593505050565b600080600060608486031215611cea57600080fd5b611cf384611c94565b9250611d0160208501611c94565b9150604084013590509250925092565b600060208284031215611d2357600080fd5b610f2982611c94565b60008060208385031215611d3f57600080fd5b823567ffffffffffffffff80821115611d5757600080fd5b818501915085601f830112611d6b57600080fd5b813581811115611d7a57600080fd5b8660208260051b8501011115611d8f57600080fd5b60209290920196919550909350505050565b6020808252825182820181905260009190848201906040850190845b81811015611dd957835183529284019291840191600101611dbd565b50909695505050505050565b634e487b7160e01b600052604160045260246000fd5b600067ffffffffffffffff80841115611e1657611e16611de5565b604051601f8501601f19908116603f01168101908282118183101715611e3e57611e3e611de5565b81604052809350858152868686011115611e5757600080fd5b858560208301376000602087830101525050509392505050565b600060208284031215611e8357600080fd5b813567ffffffffffffffff811115611e9a57600080fd5b8201601f81018413611eab57600080fd5b6111b284823560208401611dfb565b60008060408385031215611ecd57600080fd5b611ed683611c94565b9150611ee460208401611be0565b90509250929050565b60008060008060808587031215611f0357600080fd5b611f0c85611c94565b9350611f1a60208601611c94565b925060408501359150606085013567ffffffffffffffff811115611f3d57600080fd5b8501601f81018713611f4e57600080fd5b611f5d87823560208401611dfb565b91505092959194509250565b60008060408385031215611f7c57600080fd5b611f8583611c94565b9150611ee460208401611c94565b600181811c90821680611fa757607f821691505b60208210811415611fc857634e487b7160e01b600052602260045260246000fd5b50919050565b6020808252602e908201527f4552433732313a2063616c6c6572206973206e6f7420746f6b656e206f776e6560408201526d1c881b9bdc88185c1c1c9bdd995960921b606082015260800190565b634e487b7160e01b600052603260045260246000fd5b634e487b7160e01b600052601160045260246000fd5b600060001982141561205c5761205c612032565b5060010190565b6000821982111561207657612076612032565b500190565b60008451602061208e8285838a01611c10565b8551918401916120a18184848a01611c10565b8554920191600090600181811c90808316806120be57607f831692505b8583108114156120dc57634e487b7160e01b85526022600452602485fd5b8080156120f057600181146121015761212e565b60ff1985168852838801955061212e565b60008b81526020902060005b858110156121265781548a82015290840190880161210d565b505083880195505b50939b9a5050505050505050505050565b60008282101561215157612151612032565b500390565b60208082526032908201527f4552433732313a207472616e7366657220746f206e6f6e20455243373231526560408201527131b2b4bb32b91034b6b83632b6b2b73a32b960711b606082015260800190565b634e487b7160e01b600052601260045260246000fd5b6000826121cd576121cd6121a8565b500490565b6000826121e1576121e16121a8565b500690565b6001600160a01b038581168252841660208201526040810183905260806060820181905260009061221990830184611c3c565b9695505050505050565b60006020828403121561223557600080fd5b8151610f2981611bad565b634e487b7160e01b600052603160045260246000fdfea26469706673582212207ab5717e2359f99f9d40886ceea6f56956c6e56226f061bbaeccbb584fcea92364736f6c634300080b0033",
  "immutableReferences": {},
  "source": "// SPDX-License-Identifier: MIT\r\npragma solidity >=0.7.0 <0.9.0;\r\n\r\nimport \"@openzeppelin/contracts/token/ERC721/extensions/ERC721Enumerable.sol\";\r\nimport \"@openzeppelin/contracts/access/Ownable.sol\";\r\n\r\ncontract TDCNFT is ERC721Enumerable, Ownable {\r\n  using Strings for uint256;\r\n\r\n  string baseURI;\r\n  string public baseExtension = \".json\";\r\n  uint256 public maxSupply = 20;\r\n  uint256 public maxMintAmount = 3;\r\n  bool public paused = false;\r\n  bool public whitelisted = true;\r\n  address[] public whitelistedUsers;\r\n\r\n  constructor(\r\n    string memory _initBaseURI\r\n  ) ERC721(\"Thirsty Dogs Club\", \"TDC\") {\r\n    setBaseURI(_initBaseURI);\r\n  }\r\n\r\n  function _baseURI() internal view virtual override returns (string memory) {\r\n    return baseURI;\r\n  }\r\n\r\n  function mint(uint256 _mintAmount) public payable {\r\n    uint256 supply = totalSupply();\r\n    require(!paused);\r\n    require(_mintAmount > 0);\r\n    require(_mintAmount <= maxMintAmount);\r\n    require(supply + _mintAmount <= maxSupply);\r\n    if(whitelisted == true){\r\n      require(isWhitelisted(msg.sender), \"User is not whitelisted\");\r\n    }\r\n\r\n\r\n    for (uint256 i = 1; i <= _mintAmount; i++) {\r\n      _safeMint(msg.sender, supply + i);\r\n    }\r\n  }\r\n\r\n  function isWhitelisted(address _user) public returns(bool){\r\n    for(uint256 i = 0; i < whitelistedUsers.length; i++){\r\n      if(whitelistedUsers[i] == _user){\r\n        return true;\r\n      }\r\n    }\r\n    return false; \r\n  }\r\n\r\n  function walletOfOwner(address _owner)\r\n    public\r\n    view\r\n    returns (uint256[] memory)\r\n  {\r\n    uint256 ownerTokenCount = balanceOf(_owner);\r\n    uint256[] memory tokenIds = new uint256[](ownerTokenCount);\r\n    for (uint256 i; i < ownerTokenCount; i++) {\r\n      tokenIds[i] = tokenOfOwnerByIndex(_owner, i);\r\n    }\r\n    return tokenIds;\r\n  }\r\n\r\n  function tokenURI(uint256 tokenId)\r\n    public\r\n    view\r\n    virtual\r\n    override\r\n    returns (string memory)\r\n  {\r\n    require(\r\n      _exists(tokenId),\r\n      \"ERC721Metadata: URI query for nonexistent token\"\r\n    );\r\n    \r\n\r\n    string memory currentBaseURI = _baseURI();\r\n    return bytes(currentBaseURI).length > 0\r\n        ? string(abi.encodePacked(currentBaseURI, tokenId.toString(), baseExtension))\r\n        : \"\";\r\n  }\r\n\r\n  function createWhitelist(address[] calldata _users) public onlyOwner{\r\n    delete whitelistedUsers;\r\n    whitelistedUsers = _users;\r\n  }\r\n\r\n  function setWhitelisted(bool _state) public onlyOwner{\r\n    whitelisted = _state;\r\n  }\r\n\r\n  function setmaxMintAmount(uint256 _newmaxMintAmount) public onlyOwner {\r\n    maxMintAmount = _newmaxMintAmount;\r\n  }\r\n\r\n  function setBaseURI(string memory _newBaseURI) public onlyOwner {\r\n    baseURI = _newBaseURI;\r\n  }\r\n\r\n  function setBaseExtension(string memory _newBaseExtension) public onlyOwner {\r\n    baseExtension = _newBaseExtension;\r\n  }\r\n\r\n  function pause(bool _state) public onlyOwner {\r\n    paused = _state;\r\n  }\r\n \r\n//   function withdraw() public payable onlyOwner {\r\n//     // This will payout the owner 100% of the contract balance.\r\n//     // Do not remove this otherwise you will not be able to withdraw the funds.\r\n//     // =============================================================================\r\n//     (bool os, ) = payable(owner()).call{value: address(this).balance}(\"\");\r\n//     require(os);\r\n//     // =============================================================================\r\n//   }\r\n}",
  "sourcePath": "D:\\work\\eth\\cinema-nft\\contracts\\TDCNFT.sol",
  "compiler": {
    "name": "solc",
    "version": "0.8.11+commit.d7f03943.Emscripten.clang"
  },
  "schemaVersion": "3.4.4",
  "updatedAt": "2022-08-29T21:32:18.765Z",
  "devdoc": {
    "kind": "dev",
    "methods": {
      "approve(address,uint256)": {
        "details": "See {IERC721-approve}."
      },
      "balanceOf(address)": {
        "details": "See {IERC721-balanceOf}."
      },
      "getApproved(uint256)": {
        "details": "See {IERC721-getApproved}."
      },
      "isApprovedForAll(address,address)": {
        "details": "See {IERC721-isApprovedForAll}."
      },
      "name()": {
        "details": "See {IERC721Metadata-name}."
      },
      "owner()": {
        "details": "Returns the address of the current owner."
      },
      "ownerOf(uint256)": {
        "details": "See {IERC721-ownerOf}."
      },
      "renounceOwnership()": {
        "details": "Leaves the contract without owner. It will not be possible to call `onlyOwner` functions anymore. Can only be called by the current owner. NOTE: Renouncing ownership will leave the contract without an owner, thereby removing any functionality that is only available to the owner."
      },
      "safeTransferFrom(address,address,uint256)": {
        "details": "See {IERC721-safeTransferFrom}."
      },
      "safeTransferFrom(address,address,uint256,bytes)": {
        "details": "See {IERC721-safeTransferFrom}."
      },
      "setApprovalForAll(address,bool)": {
        "details": "See {IERC721-setApprovalForAll}."
      },
      "supportsInterface(bytes4)": {
        "details": "See {IERC165-supportsInterface}."
      },
      "symbol()": {
        "details": "See {IERC721Metadata-symbol}."
      },
      "tokenByIndex(uint256)": {
        "details": "See {IERC721Enumerable-tokenByIndex}."
      },
      "tokenOfOwnerByIndex(address,uint256)": {
        "details": "See {IERC721Enumerable-tokenOfOwnerByIndex}."
      },
      "tokenURI(uint256)": {
        "details": "See {IERC721Metadata-tokenURI}."
      },
      "totalSupply()": {
        "details": "See {IERC721Enumerable-totalSupply}."
      },
      "transferFrom(address,address,uint256)": {
        "details": "See {IERC721-transferFrom}."
      },
      "transferOwnership(address)": {
        "details": "Transfers ownership of the contract to a new account (`newOwner`). Can only be called by the current owner."
      }
    },
    "version": 1
  },
  "userdoc": {
    "kind": "user",
    "methods": {},
    "version": 1
  }
}