{
  "contractName": "TDCNFT",
  "abi": [
    {
      "anonymous": false,
      "inputs": [
        {
          "indexed": false,
          "internalType": "address",
          "name": "previousAdmin",
          "type": "address"
        },
        {
          "indexed": false,
          "internalType": "address",
          "name": "newAdmin",
          "type": "address"
        }
      ],
      "name": "AdminChanged",
      "type": "event"
    },
    {
      "anonymous": false,
      "inputs": [
        {
          "indexed": true,
          "internalType": "address",
          "name": "owner",
          "type": "address"
        },
        {
          "indexed": true,
          "internalType": "address",
          "name": "approved",
          "type": "address"
        },
        {
          "indexed": true,
          "internalType": "uint256",
          "name": "tokenId",
          "type": "uint256"
        }
      ],
      "name": "Approval",
      "type": "event"
    },
    {
      "anonymous": false,
      "inputs": [
        {
          "indexed": true,
          "internalType": "address",
          "name": "owner",
          "type": "address"
        },
        {
          "indexed": true,
          "internalType": "address",
          "name": "operator",
          "type": "address"
        },
        {
          "indexed": false,
          "internalType": "bool",
          "name": "approved",
          "type": "bool"
        }
      ],
      "name": "ApprovalForAll",
      "type": "event"
    },
    {
      "anonymous": false,
      "inputs": [
        {
          "indexed": true,
          "internalType": "address",
          "name": "beacon",
          "type": "address"
        }
      ],
      "name": "BeaconUpgraded",
      "type": "event"
    },
    {
      "anonymous": false,
      "inputs": [
        {
          "indexed": false,
          "internalType": "uint8",
          "name": "version",
          "type": "uint8"
        }
      ],
      "name": "Initialized",
      "type": "event"
    },
    {
      "anonymous": false,
      "inputs": [
        {
          "indexed": true,
          "internalType": "address",
          "name": "previousOwner",
          "type": "address"
        },
        {
          "indexed": true,
          "internalType": "address",
          "name": "newOwner",
          "type": "address"
        }
      ],
      "name": "OwnershipTransferred",
      "type": "event"
    },
    {
      "anonymous": false,
      "inputs": [
        {
          "indexed": true,
          "internalType": "address",
          "name": "from",
          "type": "address"
        },
        {
          "indexed": true,
          "internalType": "address",
          "name": "to",
          "type": "address"
        },
        {
          "indexed": true,
          "internalType": "uint256",
          "name": "tokenId",
          "type": "uint256"
        }
      ],
      "name": "Transfer",
      "type": "event"
    },
    {
      "anonymous": false,
      "inputs": [
        {
          "indexed": true,
          "internalType": "address",
          "name": "implementation",
          "type": "address"
        }
      ],
      "name": "Upgraded",
      "type": "event"
    },
    {
      "inputs": [
        {
          "internalType": "address",
          "name": "to",
          "type": "address"
        },
        {
          "internalType": "uint256",
          "name": "tokenId",
          "type": "uint256"
        }
      ],
      "name": "approve",
      "outputs": [],
      "stateMutability": "nonpayable",
      "type": "function"
    },
    {
      "inputs": [
        {
          "internalType": "address",
          "name": "owner",
          "type": "address"
        }
      ],
      "name": "balanceOf",
      "outputs": [
        {
          "internalType": "uint256",
          "name": "",
          "type": "uint256"
        }
      ],
      "stateMutability": "view",
      "type": "function"
    },
    {
      "inputs": [],
      "name": "baseExtension",
      "outputs": [
        {
          "internalType": "string",
          "name": "",
          "type": "string"
        }
      ],
      "stateMutability": "view",
      "type": "function"
    },
    {
      "inputs": [
        {
          "internalType": "uint256",
          "name": "tokenId",
          "type": "uint256"
        }
      ],
      "name": "getApproved",
      "outputs": [
        {
          "internalType": "address",
          "name": "",
          "type": "address"
        }
      ],
      "stateMutability": "view",
      "type": "function"
    },
    {
      "inputs": [
        {
          "internalType": "address",
          "name": "owner",
          "type": "address"
        },
        {
          "internalType": "address",
          "name": "operator",
          "type": "address"
        }
      ],
      "name": "isApprovedForAll",
      "outputs": [
        {
          "internalType": "bool",
          "name": "",
          "type": "bool"
        }
      ],
      "stateMutability": "view",
      "type": "function"
    },
    {
      "inputs": [],
      "name": "maxMintAmount",
      "outputs": [
        {
          "internalType": "uint256",
          "name": "",
          "type": "uint256"
        }
      ],
      "stateMutability": "view",
      "type": "function"
    },
    {
      "inputs": [],
      "name": "maxSupply",
      "outputs": [
        {
          "internalType": "uint256",
          "name": "",
          "type": "uint256"
        }
      ],
      "stateMutability": "view",
      "type": "function"
    },
    {
      "inputs": [],
      "name": "name",
      "outputs": [
        {
          "internalType": "string",
          "name": "",
          "type": "string"
        }
      ],
      "stateMutability": "view",
      "type": "function"
    },
    {
      "inputs": [],
      "name": "owner",
      "outputs": [
        {
          "internalType": "address",
          "name": "",
          "type": "address"
        }
      ],
      "stateMutability": "view",
      "type": "function"
    },
    {
      "inputs": [
        {
          "internalType": "uint256",
          "name": "tokenId",
          "type": "uint256"
        }
      ],
      "name": "ownerOf",
      "outputs": [
        {
          "internalType": "address",
          "name": "",
          "type": "address"
        }
      ],
      "stateMutability": "view",
      "type": "function"
    },
    {
      "inputs": [],
      "name": "paused",
      "outputs": [
        {
          "internalType": "bool",
          "name": "",
          "type": "bool"
        }
      ],
      "stateMutability": "view",
      "type": "function"
    },
    {
      "inputs": [],
      "name": "price",
      "outputs": [
        {
          "internalType": "uint256",
          "name": "",
          "type": "uint256"
        }
      ],
      "stateMutability": "view",
      "type": "function"
    },
    {
      "inputs": [],
      "name": "proxiableUUID",
      "outputs": [
        {
          "internalType": "bytes32",
          "name": "",
          "type": "bytes32"
        }
      ],
      "stateMutability": "view",
      "type": "function"
    },
    {
      "inputs": [],
      "name": "renounceOwnership",
      "outputs": [],
      "stateMutability": "nonpayable",
      "type": "function"
    },
    {
      "inputs": [
        {
          "internalType": "address",
          "name": "from",
          "type": "address"
        },
        {
          "internalType": "address",
          "name": "to",
          "type": "address"
        },
        {
          "internalType": "uint256",
          "name": "tokenId",
          "type": "uint256"
        }
      ],
      "name": "safeTransferFrom",
      "outputs": [],
      "stateMutability": "nonpayable",
      "type": "function"
    },
    {
      "inputs": [
        {
          "internalType": "address",
          "name": "from",
          "type": "address"
        },
        {
          "internalType": "address",
          "name": "to",
          "type": "address"
        },
        {
          "internalType": "uint256",
          "name": "tokenId",
          "type": "uint256"
        },
        {
          "internalType": "bytes",
          "name": "data",
          "type": "bytes"
        }
      ],
      "name": "safeTransferFrom",
      "outputs": [],
      "stateMutability": "nonpayable",
      "type": "function"
    },
    {
      "inputs": [
        {
          "internalType": "address",
          "name": "operator",
          "type": "address"
        },
        {
          "internalType": "bool",
          "name": "approved",
          "type": "bool"
        }
      ],
      "name": "setApprovalForAll",
      "outputs": [],
      "stateMutability": "nonpayable",
      "type": "function"
    },
    {
      "inputs": [
        {
          "internalType": "bytes4",
          "name": "interfaceId",
          "type": "bytes4"
        }
      ],
      "name": "supportsInterface",
      "outputs": [
        {
          "internalType": "bool",
          "name": "",
          "type": "bool"
        }
      ],
      "stateMutability": "view",
      "type": "function"
    },
    {
      "inputs": [],
      "name": "symbol",
      "outputs": [
        {
          "internalType": "string",
          "name": "",
          "type": "string"
        }
      ],
      "stateMutability": "view",
      "type": "function"
    },
    {
      "inputs": [
        {
          "internalType": "uint256",
          "name": "index",
          "type": "uint256"
        }
      ],
      "name": "tokenByIndex",
      "outputs": [
        {
          "internalType": "uint256",
          "name": "",
          "type": "uint256"
        }
      ],
      "stateMutability": "view",
      "type": "function"
    },
    {
      "inputs": [
        {
          "internalType": "address",
          "name": "owner",
          "type": "address"
        },
        {
          "internalType": "uint256",
          "name": "index",
          "type": "uint256"
        }
      ],
      "name": "tokenOfOwnerByIndex",
      "outputs": [
        {
          "internalType": "uint256",
          "name": "",
          "type": "uint256"
        }
      ],
      "stateMutability": "view",
      "type": "function"
    },
    {
      "inputs": [],
      "name": "totalSupply",
      "outputs": [
        {
          "internalType": "uint256",
          "name": "",
          "type": "uint256"
        }
      ],
      "stateMutability": "view",
      "type": "function"
    },
    {
      "inputs": [
        {
          "internalType": "address",
          "name": "from",
          "type": "address"
        },
        {
          "internalType": "address",
          "name": "to",
          "type": "address"
        },
        {
          "internalType": "uint256",
          "name": "tokenId",
          "type": "uint256"
        }
      ],
      "name": "transferFrom",
      "outputs": [],
      "stateMutability": "nonpayable",
      "type": "function"
    },
    {
      "inputs": [
        {
          "internalType": "address",
          "name": "newOwner",
          "type": "address"
        }
      ],
      "name": "transferOwnership",
      "outputs": [],
      "stateMutability": "nonpayable",
      "type": "function"
    },
    {
      "inputs": [
        {
          "internalType": "address",
          "name": "newImplementation",
          "type": "address"
        }
      ],
      "name": "upgradeTo",
      "outputs": [],
      "stateMutability": "nonpayable",
      "type": "function"
    },
    {
      "inputs": [
        {
          "internalType": "address",
          "name": "newImplementation",
          "type": "address"
        },
        {
          "internalType": "bytes",
          "name": "data",
          "type": "bytes"
        }
      ],
      "name": "upgradeToAndCall",
      "outputs": [],
      "stateMutability": "payable",
      "type": "function"
    },
    {
      "inputs": [],
      "name": "whitelisted",
      "outputs": [
        {
          "internalType": "bool",
          "name": "",
          "type": "bool"
        }
      ],
      "stateMutability": "view",
      "type": "function"
    },
    {
      "inputs": [
        {
          "internalType": "uint256",
          "name": "",
          "type": "uint256"
        }
      ],
      "name": "whitelistedUsers",
      "outputs": [
        {
          "internalType": "address",
          "name": "",
          "type": "address"
        }
      ],
      "stateMutability": "view",
      "type": "function"
    },
    {
      "inputs": [],
      "name": "initialize",
      "outputs": [],
      "stateMutability": "nonpayable",
      "type": "function"
    },
    {
      "inputs": [
        {
          "internalType": "uint256",
          "name": "_mintAmount",
          "type": "uint256"
        }
      ],
      "name": "mint",
      "outputs": [],
      "stateMutability": "payable",
      "type": "function"
    },
    {
      "inputs": [
        {
          "internalType": "address",
          "name": "_user",
          "type": "address"
        }
      ],
      "name": "isWhitelisted",
      "outputs": [
        {
          "internalType": "bool",
          "name": "",
          "type": "bool"
        }
      ],
      "stateMutability": "view",
      "type": "function"
    },
    {
      "inputs": [
        {
          "internalType": "address",
          "name": "_owner",
          "type": "address"
        }
      ],
      "name": "walletOfOwner",
      "outputs": [
        {
          "internalType": "uint256[]",
          "name": "",
          "type": "uint256[]"
        }
      ],
      "stateMutability": "view",
      "type": "function"
    },
    {
      "inputs": [
        {
          "internalType": "uint256",
          "name": "tokenId",
          "type": "uint256"
        }
      ],
      "name": "tokenURI",
      "outputs": [
        {
          "internalType": "string",
          "name": "",
          "type": "string"
        }
      ],
      "stateMutability": "view",
      "type": "function"
    },
    {
      "inputs": [],
      "name": "getTokenPrice",
      "outputs": [
        {
          "internalType": "uint256",
          "name": "",
          "type": "uint256"
        }
      ],
      "stateMutability": "view",
      "type": "function"
    },
    {
      "inputs": [
        {
          "internalType": "uint256",
          "name": "_price",
          "type": "uint256"
        }
      ],
      "name": "setTokenPrice",
      "outputs": [],
      "stateMutability": "nonpayable",
      "type": "function"
    },
    {
      "inputs": [
        {
          "internalType": "address[]",
          "name": "_users",
          "type": "address[]"
        }
      ],
      "name": "createWhitelist",
      "outputs": [],
      "stateMutability": "nonpayable",
      "type": "function"
    },
    {
      "inputs": [
        {
          "internalType": "bool",
          "name": "_state",
          "type": "bool"
        }
      ],
      "name": "setWhitelisted",
      "outputs": [],
      "stateMutability": "nonpayable",
      "type": "function"
    },
    {
      "inputs": [
        {
          "internalType": "uint256",
          "name": "_newmaxMintAmount",
          "type": "uint256"
        }
      ],
      "name": "setmaxMintAmount",
      "outputs": [],
      "stateMutability": "nonpayable",
      "type": "function"
    },
    {
      "inputs": [
        {
          "internalType": "string",
          "name": "_newBaseURI",
          "type": "string"
        }
      ],
      "name": "setBaseURI",
      "outputs": [],
      "stateMutability": "nonpayable",
      "type": "function"
    },
    {
      "inputs": [
        {
          "internalType": "string",
          "name": "_newBaseExtension",
          "type": "string"
        }
      ],
      "name": "setBaseExtension",
      "outputs": [],
      "stateMutability": "nonpayable",
      "type": "function"
    },
    {
      "inputs": [
        {
          "internalType": "bool",
          "name": "_state",
          "type": "bool"
        }
      ],
      "name": "pause",
      "outputs": [],
      "stateMutability": "nonpayable",
      "type": "function"
    },
    {
      "inputs": [],
      "name": "withdraw",
      "outputs": [],
      "stateMutability": "payable",
      "type": "function"
    }
  ],
  "bytecode": "0x3060805260e0604052600560a090815264173539b7b760d91b60c052610192906200002b90826200010d565b5060146101935560036101945566470de4df82000061019555610196805461ffff19166101001790553480156200006157600080fd5b50620001d9565b634e487b7160e01b600052604160045260246000fd5b600181811c908216806200009357607f821691505b602082108103620000b457634e487b7160e01b600052602260045260246000fd5b50919050565b601f8211156200010857600081815260208120601f850160051c81016020861015620000e35750805b601f850160051c820191505b818110156200010457828155600101620000ef565b5050505b505050565b81516001600160401b0381111562000129576200012962000068565b62000141816200013a84546200007e565b84620000ba565b602080601f831160018114620001795760008415620001605750858301515b600019600386901b1c1916600185901b17855562000104565b600085815260208120601f198616915b82811015620001aa5788860151825594840194600190910190840162000189565b5085821015620001c95787850151600019600388901b60f8161c191681555b5050505050600190811b01905550565b6080516130416200021160003960008181610a5201528181610a9201528181610cf401528181610d340152610e5a01526130416000f3fe6080604052600436106102515760003560e01c80635c975abb1161013957806395d89b41116100b6578063c66828621161007a578063c668286214610692578063c87b56dd146106a7578063d5abeb01146106c7578063da3ef23f146106de578063e985e9c5146106fe578063f2fde38b1461074757600080fd5b806395d89b4114610613578063a035b1fe14610628578063a0712d681461063f578063a22cb46514610652578063b88d4fde1461067257600080fd5b80637b789204116100fd5780637b789204146105805780637f00c7a6146105a05780638129fc1c146105c057806385668275146105d55780638da5cb5b146105f557600080fd5b80635c975abb146104f05780636352211e1461050b5780636a61e5fc1461052b57806370a082311461054b578063715018a61461056b57600080fd5b80633af32abf116101d2578063438b630011610196578063438b6300146104455780634b94f50e146104725780634f1ef286146104885780634f6ccce71461049b57806352d1902d146104bb57806355f804b3146104d057600080fd5b80633af32abf146103bd5780633ccfd60b146103dd5780633d9287fa146103e55780633dd16f461461040557806342842e0e1461042557600080fd5b806318160ddd1161021957806318160ddd14610327578063239c70ae1461034657806323b872dd1461035d5780632f745c591461037d5780633659cfe61461039d57600080fd5b806301ffc9a71461025657806302329a291461028b57806306fdde03146102ad578063081812fc146102cf578063095ea7b314610307575b600080fd5b34801561026257600080fd5b506102766102713660046126e3565b610767565b60405190151581526020015b60405180910390f35b34801561029757600080fd5b506102ab6102a6366004612715565b610792565b005b3480156102b957600080fd5b506102c26107ae565b6040516102829190612780565b3480156102db57600080fd5b506102ef6102ea366004612793565b610840565b6040516001600160a01b039091168152602001610282565b34801561031357600080fd5b506102ab6103223660046127c3565b610867565b34801561033357600080fd5b506099545b604051908152602001610282565b34801561035257600080fd5b506103386101945481565b34801561036957600080fd5b506102ab6103783660046127ed565b610981565b34801561038957600080fd5b506103386103983660046127c3565b6109b2565b3480156103a957600080fd5b506102ab6103b8366004612829565b610a48565b3480156103c957600080fd5b506102766103d8366004612829565b610b27565b6102ab610b92565b3480156103f157600080fd5b506101965461027690610100900460ff1681565b34801561041157600080fd5b506102ab610420366004612844565b610c0b565b34801561043157600080fd5b506102ab6104403660046127ed565b610c2d565b34801561045157600080fd5b50610465610460366004612829565b610c48565b60405161028291906128b9565b34801561047e57600080fd5b5061019554610338565b6102ab6104963660046129a9565b610cea565b3480156104a757600080fd5b506103386104b6366004612793565b610dba565b3480156104c757600080fd5b50610338610e4d565b3480156104dc57600080fd5b506102ab6104eb3660046129f7565b610f00565b3480156104fc57600080fd5b50610196546102769060ff1681565b34801561051757600080fd5b506102ef610526366004612793565b610f15565b34801561053757600080fd5b506102ab610546366004612793565b610f75565b34801561055757600080fd5b50610338610566366004612829565b610f83565b34801561057757600080fd5b506102ab611009565b34801561058c57600080fd5b506102ab61059b366004612715565b61101d565b3480156105ac57600080fd5b506102ab6105bb366004612793565b611040565b3480156105cc57600080fd5b506102ab61104e565b3480156105e157600080fd5b506102ef6105f0366004612793565b6111c4565b34801561060157600080fd5b5060c9546001600160a01b03166102ef565b34801561061f57600080fd5b506102c26111ef565b34801561063457600080fd5b506103386101955481565b6102ab61064d366004612793565b6111fe565b34801561065e57600080fd5b506102ab61066d366004612a40565b611348565b34801561067e57600080fd5b506102ab61068d366004612a73565b611353565b34801561069e57600080fd5b506102c261138b565b3480156106b357600080fd5b506102c26106c2366004612793565b61141a565b3480156106d357600080fd5b506103386101935481565b3480156106ea57600080fd5b506102ab6106f93660046129f7565b6114f9565b34801561070a57600080fd5b50610276610719366004612adb565b6001600160a01b039182166000908152606a6020908152604080832093909416825291909152205460ff1690565b34801561075357600080fd5b506102ab610762366004612829565b61150e565b60006001600160e01b0319821663780e9d6360e01b148061078c575061078c82611584565b92915050565b61079a6115d4565b610196805460ff1916911515919091179055565b6060606580546107bd90612b05565b80601f01602080910402602001604051908101604052809291908181526020018280546107e990612b05565b80156108365780601f1061080b57610100808354040283529160200191610836565b820191906000526020600020905b81548152906001019060200180831161081957829003601f168201915b5050505050905090565b600061084b8261162e565b506000908152606960205260409020546001600160a01b031690565b600061087282610f15565b9050806001600160a01b0316836001600160a01b0316036108e45760405162461bcd60e51b815260206004820152602160248201527f4552433732313a20617070726f76616c20746f2063757272656e74206f776e656044820152603960f91b60648201526084015b60405180910390fd5b336001600160a01b038216148061090057506109008133610719565b6109725760405162461bcd60e51b815260206004820152603d60248201527f4552433732313a20617070726f76652063616c6c6572206973206e6f7420746f60448201527f6b656e206f776e6572206f7220617070726f76656420666f7220616c6c00000060648201526084016108db565b61097c838361168d565b505050565b61098b33826116fb565b6109a75760405162461bcd60e51b81526004016108db90612b3f565b61097c83838361177a565b60006109bd83610f83565b8210610a1f5760405162461bcd60e51b815260206004820152602b60248201527f455243373231456e756d657261626c653a206f776e657220696e646578206f7560448201526a74206f6620626f756e647360a81b60648201526084016108db565b506001600160a01b03919091166000908152609760209081526040808320938352929052205490565b6001600160a01b037f0000000000000000000000000000000000000000000000000000000000000000163003610a905760405162461bcd60e51b81526004016108db90612b8c565b7f00000000000000000000000000000000000000000000000000000000000000006001600160a01b0316610ad9600080516020612fc5833981519152546001600160a01b031690565b6001600160a01b031614610aff5760405162461bcd60e51b81526004016108db90612bd8565b610b08816118e9565b60408051600080825260208201909252610b24918391906118f1565b50565b6000805b61019754811015610b8957826001600160a01b03166101978281548110610b5457610b54612c24565b6000918252602090912001546001600160a01b031603610b775750600192915050565b80610b8181612c50565b915050610b2b565b50600092915050565b610b9a6115d4565b6000610bae60c9546001600160a01b031690565b6001600160a01b03164760405160006040518083038185875af1925050503d8060008114610bf8576040519150601f19603f3d011682016040523d82523d6000602084013e610bfd565b606091505b5050905080610b2457600080fd5b610c136115d4565b610c206101976000612637565b61097c6101978383612655565b61097c83838360405180602001604052806000815250611353565b60606000610c5583610f83565b905060008167ffffffffffffffff811115610c7257610c726128fd565b604051908082528060200260200182016040528015610c9b578160200160208202803683370190505b50905060005b82811015610ce257610cb385826109b2565b828281518110610cc557610cc5612c24565b602090810291909101015280610cda81612c50565b915050610ca1565b509392505050565b6001600160a01b037f0000000000000000000000000000000000000000000000000000000000000000163003610d325760405162461bcd60e51b81526004016108db90612b8c565b7f00000000000000000000000000000000000000000000000000000000000000006001600160a01b0316610d7b600080516020612fc5833981519152546001600160a01b031690565b6001600160a01b031614610da15760405162461bcd60e51b81526004016108db90612bd8565b610daa826118e9565b610db6828260016118f1565b5050565b6000610dc560995490565b8210610e285760405162461bcd60e51b815260206004820152602c60248201527f455243373231456e756d657261626c653a20676c6f62616c20696e646578206f60448201526b7574206f6620626f756e647360a01b60648201526084016108db565b60998281548110610e3b57610e3b612c24565b90600052602060002001549050919050565b6000306001600160a01b037f00000000000000000000000000000000000000000000000000000000000000001614610eed5760405162461bcd60e51b815260206004820152603860248201527f555550535570677261646561626c653a206d757374206e6f742062652063616c60448201527f6c6564207468726f7567682064656c656761746563616c6c000000000000000060648201526084016108db565b50600080516020612fc583398151915290565b610f086115d4565b610191610db68282612cb7565b6000818152606760205260408120546001600160a01b03168061078c5760405162461bcd60e51b8152602060048201526018602482015277115490cdcc8c4e881a5b9d985b1a59081d1bdad95b88125160421b60448201526064016108db565b610f7d6115d4565b61019555565b60006001600160a01b038216610fed5760405162461bcd60e51b815260206004820152602960248201527f4552433732313a2061646472657373207a65726f206973206e6f7420612076616044820152683634b21037bbb732b960b91b60648201526084016108db565b506001600160a01b031660009081526068602052604090205490565b6110116115d4565b61101b6000611a5c565b565b6110256115d4565b61019680549115156101000261ff0019909216919091179055565b6110486115d4565b61019455565b600054610100900460ff161580801561106e5750600054600160ff909116105b806110885750303b158015611088575060005460ff166001145b6110eb5760405162461bcd60e51b815260206004820152602e60248201527f496e697469616c697a61626c653a20636f6e747261637420697320616c72656160448201526d191e481a5b9a5d1a585b1a5e995960921b60648201526084016108db565b6000805460ff19166001179055801561110e576000805461ff0019166101001790555b61115c604051806040016040528060118152602001702a3434b939ba3c902237b3b99021b63ab160791b8152506040518060400160405280600381526020016254444360e81b815250611aae565b611164611adf565b61116c611b06565b611174611adf565b61117c611b35565b8015610b24576000805461ff0019169055604051600181527f7f26b83ff96e1f2b6a682f133852f6798a09c465da95921460cefb38474024989060200160405180910390a150565b61019781815481106111d557600080fd5b6000918252602090912001546001600160a01b0316905081565b6060606680546107bd90612b05565b611206611b64565b600061121160995490565b6101965490915060ff161561122557600080fd5b6000821161123257600080fd5b6101945482111561124257600080fd5b610193546112508383612d77565b111561125b57600080fd5b346101955411156112a35760405162461bcd60e51b8152602060048201526012602482015271496e73756666696369656e742066756e647360701b60448201526064016108db565b61019654610100900460ff16151560010361130d576112c133610b27565b61130d5760405162461bcd60e51b815260206004820152601760248201527f55736572206973206e6f742077686974656c697374656400000000000000000060448201526064016108db565b60015b82811161133c5761132a336113258385612d77565b611bbd565b8061133481612c50565b915050611310565b5050610b24600160fb55565b610db6338383611bde565b61135d33836116fb565b6113795760405162461bcd60e51b81526004016108db90612b3f565b61138584848484611cac565b50505050565b610192805461139990612b05565b80601f01602080910402602001604051908101604052809291908181526020018280546113c590612b05565b80156114125780601f106113e757610100808354040283529160200191611412565b820191906000526020600020905b8154815290600101906020018083116113f557829003601f168201915b505050505081565b6000818152606760205260409020546060906001600160a01b03166114995760405162461bcd60e51b815260206004820152602f60248201527f4552433732314d657461646174613a2055524920717565727920666f72206e6f60448201526e3732bc34b9ba32b73a103a37b5b2b760891b60648201526084016108db565b60006114a3611cdf565b905060008151116114c357604051806020016040528060008152506114f2565b806114cd84611cef565b6101926040516020016114e293929190612d8a565b6040516020818303038152906040525b9392505050565b6115016115d4565b610192610db68282612cb7565b6115166115d4565b6001600160a01b03811661157b5760405162461bcd60e51b815260206004820152602660248201527f4f776e61626c653a206e6577206f776e657220697320746865207a65726f206160448201526564647265737360d01b60648201526084016108db565b610b2481611a5c565b60006001600160e01b031982166380ac58cd60e01b14806115b557506001600160e01b03198216635b5e139f60e01b145b8061078c57506301ffc9a760e01b6001600160e01b031983161461078c565b60c9546001600160a01b0316331461101b5760405162461bcd60e51b815260206004820181905260248201527f4f776e61626c653a2063616c6c6572206973206e6f7420746865206f776e657260448201526064016108db565b6000818152606760205260409020546001600160a01b0316610b245760405162461bcd60e51b8152602060048201526018602482015277115490cdcc8c4e881a5b9d985b1a59081d1bdad95b88125160421b60448201526064016108db565b600081815260696020526040902080546001600160a01b0319166001600160a01b03841690811790915581906116c282610f15565b6001600160a01b03167f8c5be1e5ebec7d5bd14f71427d1e84f3dd0314c0f7b2291e5b200ac8c7c3b92560405160405180910390a45050565b60008061170783610f15565b9050806001600160a01b0316846001600160a01b0316148061174e57506001600160a01b038082166000908152606a602090815260408083209388168352929052205460ff165b806117725750836001600160a01b031661176784610840565b6001600160a01b0316145b949350505050565b826001600160a01b031661178d82610f15565b6001600160a01b0316146117b35760405162461bcd60e51b81526004016108db90612e2a565b6001600160a01b0382166118155760405162461bcd60e51b8152602060048201526024808201527f4552433732313a207472616e7366657220746f20746865207a65726f206164646044820152637265737360e01b60648201526084016108db565b611820838383611d82565b826001600160a01b031661183382610f15565b6001600160a01b0316146118595760405162461bcd60e51b81526004016108db90612e2a565b600081815260696020908152604080832080546001600160a01b03199081169091556001600160a01b0387811680865260688552838620805460001901905590871680865283862080546001019055868652606790945282852080549092168417909155905184937fddf252ad1be2c89b69c2b068fc378daa952ba7f163c4a11628f55a4df523b3ef91a4505050565b610b246115d4565b7f4910fdfa16fed3260ed0e7147f7cc6da11a60208b5b9406d12a635614ffd91435460ff16156119245761097c83611e3a565b826001600160a01b03166352d1902d6040518163ffffffff1660e01b8152600401602060405180830381865afa92505050801561197e575060408051601f3d908101601f1916820190925261197b91810190612e6f565b60015b6119e15760405162461bcd60e51b815260206004820152602e60248201527f45524331393637557067726164653a206e657720696d706c656d656e7461746960448201526d6f6e206973206e6f74205555505360901b60648201526084016108db565b600080516020612fc58339815191528114611a505760405162461bcd60e51b815260206004820152602960248201527f45524331393637557067726164653a20756e737570706f727465642070726f786044820152681a58589b195555525160ba1b60648201526084016108db565b5061097c838383611ed6565b60c980546001600160a01b038381166001600160a01b0319831681179093556040519116919082907f8be0079c531659141344cd1fd0a4f28419497f9722a3daafe3b4186f6b6457e090600090a35050565b600054610100900460ff16611ad55760405162461bcd60e51b81526004016108db90612e88565b610db68282611efb565b600054610100900460ff1661101b5760405162461bcd60e51b81526004016108db90612e88565b600054610100900460ff16611b2d5760405162461bcd60e51b81526004016108db90612e88565b61101b611f3b565b600054610100900460ff16611b5c5760405162461bcd60e51b81526004016108db90612e88565b61101b611f6b565b600260fb5403611bb65760405162461bcd60e51b815260206004820152601f60248201527f5265656e7472616e637947756172643a207265656e7472616e742063616c6c0060448201526064016108db565b600260fb55565b610db6828260405180602001604052806000815250611f92565b600160fb55565b816001600160a01b0316836001600160a01b031603611c3f5760405162461bcd60e51b815260206004820152601960248201527f4552433732313a20617070726f766520746f2063616c6c65720000000000000060448201526064016108db565b6001600160a01b038381166000818152606a6020908152604080832094871680845294825291829020805460ff191686151590811790915591519182527f17307eab39ab6107e8899845ad3d59bd9653f200f220920489ca2b5937696c31910160405180910390a3505050565b611cb784848461177a565b611cc384848484611fc5565b6113855760405162461bcd60e51b81526004016108db90612ed3565b606061019180546107bd90612b05565b60606000611cfc836120c6565b600101905060008167ffffffffffffffff811115611d1c57611d1c6128fd565b6040519080825280601f01601f191660200182016040528015611d46576020820181803683370190505b5090508181016020015b600019016f181899199a1a9b1b9c1cb0b131b232b360811b600a86061a8153600a8504945084611d5057509392505050565b6001600160a01b038316611ddd57611dd881609980546000838152609a60205260408120829055600182018355919091527f72a152ddfb8e864297c917af52ea6c1c68aead0fee1a62673fcc7e0c94979d000155565b611e00565b816001600160a01b0316836001600160a01b031614611e0057611e00838261219e565b6001600160a01b038216611e175761097c8161223b565b826001600160a01b0316826001600160a01b03161461097c5761097c82826122ea565b6001600160a01b0381163b611ea75760405162461bcd60e51b815260206004820152602d60248201527f455243313936373a206e657720696d706c656d656e746174696f6e206973206e60448201526c1bdd08184818dbdb9d1c9858dd609a1b60648201526084016108db565b600080516020612fc583398151915280546001600160a01b0319166001600160a01b0392909216919091179055565b611edf8361232e565b600082511180611eec5750805b1561097c57611385838361236e565b600054610100900460ff16611f225760405162461bcd60e51b81526004016108db90612e88565b6065611f2e8382612cb7565b50606661097c8282612cb7565b600054610100900460ff16611f625760405162461bcd60e51b81526004016108db90612e88565b61101b33611a5c565b600054610100900460ff16611bd75760405162461bcd60e51b81526004016108db90612e88565b611f9c8383612462565b611fa96000848484611fc5565b61097c5760405162461bcd60e51b81526004016108db90612ed3565b60006001600160a01b0384163b156120bb57604051630a85bd0160e11b81526001600160a01b0385169063150b7a0290612009903390899088908890600401612f25565b6020604051808303816000875af1925050508015612044575060408051601f3d908101601f1916820190925261204191810190612f62565b60015b6120a1573d808015612072576040519150601f19603f3d011682016040523d82523d6000602084013e612077565b606091505b5080516000036120995760405162461bcd60e51b81526004016108db90612ed3565b805181602001fd5b6001600160e01b031916630a85bd0160e11b149050611772565b506001949350505050565b60008072184f03e93ff9f4daa797ed6e38ed64bf6a1f0160401b83106121055772184f03e93ff9f4daa797ed6e38ed64bf6a1f0160401b830492506040015b6d04ee2d6d415b85acef81000000008310612131576d04ee2d6d415b85acef8100000000830492506020015b662386f26fc10000831061214f57662386f26fc10000830492506010015b6305f5e1008310612167576305f5e100830492506008015b612710831061217b57612710830492506004015b6064831061218d576064830492506002015b600a831061078c5760010192915050565b600060016121ab84610f83565b6121b59190612f7f565b600083815260986020526040902054909150808214612208576001600160a01b03841660009081526097602090815260408083208584528252808320548484528184208190558352609890915290208190555b5060009182526098602090815260408084208490556001600160a01b039094168352609781528383209183525290812055565b60995460009061224d90600190612f7f565b6000838152609a60205260408120546099805493945090928490811061227557612275612c24565b90600052602060002001549050806099838154811061229657612296612c24565b6000918252602080832090910192909255828152609a909152604080822084905585825281205560998054806122ce576122ce612f92565b6001900381819060005260206000200160009055905550505050565b60006122f583610f83565b6001600160a01b039093166000908152609760209081526040808320868452825280832085905593825260989052919091209190915550565b61233781611e3a565b6040516001600160a01b038216907fbc7cd75a20ee27fd9adebab32041f755214dbc6bffa90cc0225b39da2e5c2d3b90600090a250565b60606001600160a01b0383163b6123d65760405162461bcd60e51b815260206004820152602660248201527f416464726573733a2064656c65676174652063616c6c20746f206e6f6e2d636f6044820152651b9d1c9858dd60d21b60648201526084016108db565b600080846001600160a01b0316846040516123f19190612fa8565b600060405180830381855af49150503d806000811461242c576040519150601f19603f3d011682016040523d82523d6000602084013e612431565b606091505b50915091506124598282604051806060016040528060278152602001612fe5602791396125f9565b95945050505050565b6001600160a01b0382166124b85760405162461bcd60e51b815260206004820181905260248201527f4552433732313a206d696e7420746f20746865207a65726f206164647265737360448201526064016108db565b6000818152606760205260409020546001600160a01b03161561251d5760405162461bcd60e51b815260206004820152601c60248201527f4552433732313a20746f6b656e20616c7265616479206d696e7465640000000060448201526064016108db565b61252960008383611d82565b6000818152606760205260409020546001600160a01b03161561258e5760405162461bcd60e51b815260206004820152601c60248201527f4552433732313a20746f6b656e20616c7265616479206d696e7465640000000060448201526064016108db565b6001600160a01b038216600081815260686020908152604080832080546001019055848352606790915280822080546001600160a01b0319168417905551839291907fddf252ad1be2c89b69c2b068fc378daa952ba7f163c4a11628f55a4df523b3ef908290a45050565b606083156126085750816114f2565b6114f2838381511561261d5781518083602001fd5b8060405162461bcd60e51b81526004016108db9190612780565b5080546000825590600052602060002090810190610b2491906126b8565b8280548282559060005260206000209081019282156126a8579160200282015b828111156126a85781546001600160a01b0319166001600160a01b03843516178255602090920191600190910190612675565b506126b49291506126b8565b5090565b5b808211156126b457600081556001016126b9565b6001600160e01b031981168114610b2457600080fd5b6000602082840312156126f557600080fd5b81356114f2816126cd565b8035801515811461271057600080fd5b919050565b60006020828403121561272757600080fd5b6114f282612700565b60005b8381101561274b578181015183820152602001612733565b50506000910152565b6000815180845261276c816020860160208601612730565b601f01601f19169290920160200192915050565b6020815260006114f26020830184612754565b6000602082840312156127a557600080fd5b5035919050565b80356001600160a01b038116811461271057600080fd5b600080604083850312156127d657600080fd5b6127df836127ac565b946020939093013593505050565b60008060006060848603121561280257600080fd5b61280b846127ac565b9250612819602085016127ac565b9150604084013590509250925092565b60006020828403121561283b57600080fd5b6114f2826127ac565b6000806020838503121561285757600080fd5b823567ffffffffffffffff8082111561286f57600080fd5b818501915085601f83011261288357600080fd5b81358181111561289257600080fd5b8660208260051b85010111156128a757600080fd5b60209290920196919550909350505050565b6020808252825182820181905260009190848201906040850190845b818110156128f1578351835292840192918401916001016128d5565b50909695505050505050565b634e487b7160e01b600052604160045260246000fd5b600067ffffffffffffffff8084111561292e5761292e6128fd565b604051601f8501601f19908116603f01168101908282118183101715612956576129566128fd565b8160405280935085815286868601111561296f57600080fd5b858560208301376000602087830101525050509392505050565b600082601f83011261299a57600080fd5b6114f283833560208501612913565b600080604083850312156129bc57600080fd5b6129c5836127ac565b9150602083013567ffffffffffffffff8111156129e157600080fd5b6129ed85828601612989565b9150509250929050565b600060208284031215612a0957600080fd5b813567ffffffffffffffff811115612a2057600080fd5b8201601f81018413612a3157600080fd5b61177284823560208401612913565b60008060408385031215612a5357600080fd5b612a5c836127ac565b9150612a6a60208401612700565b90509250929050565b60008060008060808587031215612a8957600080fd5b612a92856127ac565b9350612aa0602086016127ac565b925060408501359150606085013567ffffffffffffffff811115612ac357600080fd5b612acf87828801612989565b91505092959194509250565b60008060408385031215612aee57600080fd5b612af7836127ac565b9150612a6a602084016127ac565b600181811c90821680612b1957607f821691505b602082108103612b3957634e487b7160e01b600052602260045260246000fd5b50919050565b6020808252602d908201527f4552433732313a2063616c6c6572206973206e6f7420746f6b656e206f776e6560408201526c1c881bdc88185c1c1c9bdd9959609a1b606082015260800190565b6020808252602c908201527f46756e6374696f6e206d7573742062652063616c6c6564207468726f7567682060408201526b19195b1959d85d1958d85b1b60a21b606082015260800190565b6020808252602c908201527f46756e6374696f6e206d7573742062652063616c6c6564207468726f7567682060408201526b6163746976652070726f787960a01b606082015260800190565b634e487b7160e01b600052603260045260246000fd5b634e487b7160e01b600052601160045260246000fd5b600060018201612c6257612c62612c3a565b5060010190565b601f82111561097c57600081815260208120601f850160051c81016020861015612c905750805b601f850160051c820191505b81811015612caf57828155600101612c9c565b505050505050565b815167ffffffffffffffff811115612cd157612cd16128fd565b612ce581612cdf8454612b05565b84612c69565b602080601f831160018114612d1a5760008415612d025750858301515b600019600386901b1c1916600185901b178555612caf565b600085815260208120601f198616915b82811015612d4957888601518255948401946001909101908401612d2a565b5085821015612d675787850151600019600388901b60f8161c191681555b5050505050600190811b01905550565b8082018082111561078c5761078c612c3a565b600084516020612d9d8285838a01612730565b855191840191612db08184848a01612730565b8554920191600090612dc181612b05565b60018281168015612dd95760018114612dee57612e1a565b60ff1984168752821515830287019450612e1a565b896000528560002060005b84811015612e1257815489820152908301908701612df9565b505082870194505b50929a9950505050505050505050565b60208082526025908201527f4552433732313a207472616e736665722066726f6d20696e636f72726563742060408201526437bbb732b960d91b606082015260800190565b600060208284031215612e8157600080fd5b5051919050565b6020808252602b908201527f496e697469616c697a61626c653a20636f6e7472616374206973206e6f74206960408201526a6e697469616c697a696e6760a81b606082015260800190565b60208082526032908201527f4552433732313a207472616e7366657220746f206e6f6e20455243373231526560408201527131b2b4bb32b91034b6b83632b6b2b73a32b960711b606082015260800190565b6001600160a01b0385811682528416602082015260408101839052608060608201819052600090612f5890830184612754565b9695505050505050565b600060208284031215612f7457600080fd5b81516114f2816126cd565b8181038181111561078c5761078c612c3a565b634e487b7160e01b600052603160045260246000fd5b60008251612fba818460208701612730565b919091019291505056fe360894a13ba1a3210667c828492db98dca3e2076cc3735a920a3ca505d382bbc416464726573733a206c6f772d6c6576656c2064656c65676174652063616c6c206661696c6564a26469706673582212201c021a12ce1f7ffa8b8e6c341f0020f434fe371ce4e779ae8dd62263a6d0e1f164736f6c63430008110033",
  "immutableReferences": {
    "720": [
      {
        "length": 32,
        "start": 2642
      },
      {
        "length": 32,
        "start": 2706
      },
      {
        "length": 32,
        "start": 3316
      },
      {
        "length": 32,
        "start": 3380
      },
      {
        "length": 32,
        "start": 3674
      }
    ]
  },
  "source": "// SPDX-License-Identifier: MIT\r\npragma solidity >=0.7.0 <0.9.0;\r\n\r\nimport \"@openzeppelin/contracts-upgradeable/utils/math/MathUpgradeable.sol\";\r\nimport \"@openzeppelin/contracts-upgradeable/token/ERC721/extensions/ERC721EnumerableUpgradeable.sol\";\r\nimport \"@openzeppelin/contracts-upgradeable/access/OwnableUpgradeable.sol\";\r\nimport \"@openzeppelin/contracts-upgradeable/security/ReentrancyGuardUpgradeable.sol\";\r\nimport \"@openzeppelin/contracts-upgradeable/proxy/utils/UUPSUpgradeable.sol\";\r\nimport \"@openzeppelin/contracts-upgradeable/utils/StringsUpgradeable.sol\";\r\n\r\ncontract TDCNFT is  \r\n  ERC721EnumerableUpgradeable, \r\n  OwnableUpgradeable, \r\n  ReentrancyGuardUpgradeable, \r\n  UUPSUpgradeable{\r\n  using StringsUpgradeable for uint256;\r\n\r\n  string baseURI;\r\n  string public baseExtension = \".json\";\r\n  uint256 public maxSupply = 20;\r\n  uint256 public maxMintAmount = 3;\r\n  uint256 public price = 20000000000000000;\r\n  bool public paused = false;\r\n  bool public whitelisted = true;\r\n  address[] public whitelistedUsers;\r\n\r\n  function initialize() public initializer{\r\n    __ERC721_init(\"Thirsty Dogs Club\", \"TDC\");\r\n    __ERC721Enumerable_init();\r\n    __Ownable_init();\r\n    __UUPSUpgradeable_init();\r\n    __ReentrancyGuard_init();\r\n  }\r\n\r\n  // constructor(\r\n  //   string memory _initBaseURI,\r\n  //   address[] memory whiteUsers\r\n  // ) ERC721(\"Thirsty Dogs Club\", \"TDC\") {\r\n\r\n  //   setBaseURI(_initBaseURI);\r\n  //   whitelistedUsers = whiteUsers;\r\n\r\n  // }\r\n\r\n  function _baseURI() internal view virtual override returns (string memory) {\r\n    return baseURI;\r\n  }\r\n\r\n  function mint(uint256 _mintAmount) public payable nonReentrant{\r\n    uint256 supply = totalSupply();\r\n    require(!paused);\r\n    require(_mintAmount > 0);\r\n    require(_mintAmount <= maxMintAmount);\r\n    require(supply + _mintAmount <= maxSupply);\r\n    require(price <= msg.value, \"Insufficient funds\");\r\n    if(whitelisted == true){\r\n      require(isWhitelisted(msg.sender), \"User is not whitelisted\");\r\n    }\r\n\r\n\r\n    for (uint256 i = 1; i <= _mintAmount; i++) {\r\n      _safeMint(msg.sender, supply + i);\r\n    }\r\n  }\r\n\r\n  function isWhitelisted(address _user) public view returns(bool){\r\n    for(uint256 i = 0; i < whitelistedUsers.length; i++){\r\n      if(whitelistedUsers[i] == _user){\r\n        return true;\r\n      }\r\n    }\r\n    return false; \r\n  }\r\n\r\n  function walletOfOwner(address _owner)\r\n    public\r\n    view\r\n    returns (uint256[] memory)\r\n  {\r\n    uint256 ownerTokenCount = balanceOf(_owner);\r\n    uint256[] memory tokenIds = new uint256[](ownerTokenCount);\r\n    for (uint256 i; i < ownerTokenCount; i++) {\r\n      tokenIds[i] = tokenOfOwnerByIndex(_owner, i);\r\n    }\r\n    return tokenIds;\r\n  }\r\n\r\n  function tokenURI(uint256 tokenId)\r\n    public\r\n    view\r\n    virtual\r\n    override\r\n    returns (string memory)\r\n  {\r\n    require(\r\n      _exists(tokenId),\r\n      \"ERC721Metadata: URI query for nonexistent token\"\r\n    );\r\n    \r\n\r\n    string memory currentBaseURI = _baseURI();\r\n    return bytes(currentBaseURI).length > 0\r\n        ? string(abi.encodePacked(currentBaseURI, tokenId.toString(), baseExtension))\r\n        : \"\";\r\n  }\r\n\r\n  function getTokenPrice() public view returns(uint256) {\r\n    return price;\r\n  }\r\n\r\n  function setTokenPrice(uint256 _price) public onlyOwner {\r\n    price = _price;\r\n  }\r\n\r\n  function createWhitelist(address[] calldata _users) public onlyOwner{\r\n    delete whitelistedUsers;\r\n    whitelistedUsers = _users;\r\n  }\r\n\r\n  function setWhitelisted(bool _state) public onlyOwner{\r\n    whitelisted = _state;\r\n  }\r\n\r\n  function setmaxMintAmount(uint256 _newmaxMintAmount) public onlyOwner {\r\n    maxMintAmount = _newmaxMintAmount;\r\n  }\r\n\r\n  function setBaseURI(string memory _newBaseURI) public onlyOwner {\r\n    baseURI = _newBaseURI;\r\n  }\r\n\r\n  function setBaseExtension(string memory _newBaseExtension) public onlyOwner {\r\n    baseExtension = _newBaseExtension;\r\n  }\r\n\r\n  function pause(bool _state) public onlyOwner {\r\n    paused = _state;\r\n  }\r\n \r\n  function withdraw() public payable onlyOwner {\r\n    (bool os, ) = payable(owner()).call{value: address(this).balance}(\"\");\r\n    require(os);\r\n  }\r\n\r\n  function _authorizeUpgrade(address newImplementation)\r\n        internal\r\n        onlyOwner\r\n        override\r\n    {}\r\n}",
  "sourcePath": "D:\\work\\eth\\cinema-nft\\contracts\\TDCNFT.sol",
  "compiler": {
    "name": "solc",
    "version": "0.8.17+commit.8df45f5f.Emscripten.clang"
  },
  "schemaVersion": "3.4.4",
  "updatedAt": "2022-10-15T14:37:48.987Z",
  "devdoc": {
    "kind": "dev",
    "methods": {
      "approve(address,uint256)": {
        "details": "See {IERC721-approve}."
      },
      "balanceOf(address)": {
        "details": "See {IERC721-balanceOf}."
      },
      "getApproved(uint256)": {
        "details": "See {IERC721-getApproved}."
      },
      "isApprovedForAll(address,address)": {
        "details": "See {IERC721-isApprovedForAll}."
      },
      "name()": {
        "details": "See {IERC721Metadata-name}."
      },
      "owner()": {
        "details": "Returns the address of the current owner."
      },
      "ownerOf(uint256)": {
        "details": "See {IERC721-ownerOf}."
      },
      "proxiableUUID()": {
        "details": "Implementation of the ERC1822 {proxiableUUID} function. This returns the storage slot used by the implementation. It is used to validate the implementation's compatibility when performing an upgrade. IMPORTANT: A proxy pointing at a proxiable contract should not be considered proxiable itself, because this risks bricking a proxy that upgrades to it, by delegating to itself until out of gas. Thus it is critical that this function revert if invoked through a proxy. This is guaranteed by the `notDelegated` modifier."
      },
      "renounceOwnership()": {
        "details": "Leaves the contract without owner. It will not be possible to call `onlyOwner` functions anymore. Can only be called by the current owner. NOTE: Renouncing ownership will leave the contract without an owner, thereby removing any functionality that is only available to the owner."
      },
      "safeTransferFrom(address,address,uint256)": {
        "details": "See {IERC721-safeTransferFrom}."
      },
      "safeTransferFrom(address,address,uint256,bytes)": {
        "details": "See {IERC721-safeTransferFrom}."
      },
      "setApprovalForAll(address,bool)": {
        "details": "See {IERC721-setApprovalForAll}."
      },
      "supportsInterface(bytes4)": {
        "details": "See {IERC165-supportsInterface}."
      },
      "symbol()": {
        "details": "See {IERC721Metadata-symbol}."
      },
      "tokenByIndex(uint256)": {
        "details": "See {IERC721Enumerable-tokenByIndex}."
      },
      "tokenOfOwnerByIndex(address,uint256)": {
        "details": "See {IERC721Enumerable-tokenOfOwnerByIndex}."
      },
      "tokenURI(uint256)": {
        "details": "See {IERC721Metadata-tokenURI}."
      },
      "totalSupply()": {
        "details": "See {IERC721Enumerable-totalSupply}."
      },
      "transferFrom(address,address,uint256)": {
        "details": "See {IERC721-transferFrom}."
      },
      "transferOwnership(address)": {
        "details": "Transfers ownership of the contract to a new account (`newOwner`). Can only be called by the current owner."
      },
      "upgradeTo(address)": {
        "details": "Upgrade the implementation of the proxy to `newImplementation`. Calls {_authorizeUpgrade}. Emits an {Upgraded} event."
      },
      "upgradeToAndCall(address,bytes)": {
        "details": "Upgrade the implementation of the proxy to `newImplementation`, and subsequently execute the function call encoded in `data`. Calls {_authorizeUpgrade}. Emits an {Upgraded} event."
      }
    },
    "version": 1
  },
  "userdoc": {
    "kind": "user",
    "methods": {},
    "version": 1
  }
}